{
  "_format": "hh-sol-artifact-1",
  "contractName": "AMDG",
  "sourceName": "contracts/AMDG.sol",
  "abi": [
    {
      "anonymous": false,
      "inputs": [
        {
          "indexed": false,
          "internalType": "uint256",
          "name": "commentId",
          "type": "uint256"
        },
        {
          "indexed": true,
          "internalType": "uint256",
          "name": "tweetId",
          "type": "uint256"
        },
        {
          "indexed": true,
          "internalType": "address",
          "name": "author",
          "type": "address"
        },
        {
          "indexed": false,
          "internalType": "string",
          "name": "text",
          "type": "string"
        },
        {
          "indexed": false,
          "internalType": "uint256",
          "name": "timestamp",
          "type": "uint256"
        }
      ],
      "name": "CommentPosted",
      "type": "event"
    },
    {
      "anonymous": false,
      "inputs": [
        {
          "indexed": false,
          "internalType": "uint256",
          "name": "tweetId",
          "type": "uint256"
        },
        {
          "indexed": true,
          "internalType": "address",
          "name": "liker",
          "type": "address"
        }
      ],
      "name": "TweetLiked",
      "type": "event"
    },
    {
      "anonymous": false,
      "inputs": [
        {
          "indexed": false,
          "internalType": "uint256",
          "name": "tweetId",
          "type": "uint256"
        },
        {
          "indexed": true,
          "internalType": "address",
          "name": "author",
          "type": "address"
        },
        {
          "indexed": false,
          "internalType": "string",
          "name": "text",
          "type": "string"
        },
        {
          "indexed": false,
          "internalType": "string",
          "name": "imageUrl",
          "type": "string"
        },
        {
          "indexed": false,
          "internalType": "uint256",
          "name": "timestamp",
          "type": "uint256"
        }
      ],
      "name": "TweetPosted",
      "type": "event"
    },
    {
      "anonymous": false,
      "inputs": [
        {
          "indexed": true,
          "internalType": "address",
          "name": "user",
          "type": "address"
        },
        {
          "indexed": false,
          "internalType": "string",
          "name": "username",
          "type": "string"
        }
      ],
      "name": "UserRegistered",
      "type": "event"
    },
    {
      "inputs": [],
      "name": "commentCount",
      "outputs": [
        {
          "internalType": "uint256",
          "name": "",
          "type": "uint256"
        }
      ],
      "stateMutability": "view",
      "type": "function"
    },
    {
      "inputs": [
        {
          "internalType": "uint256",
          "name": "_tweetId",
          "type": "uint256"
        },
        {
          "internalType": "string",
          "name": "_commentText",
          "type": "string"
        }
      ],
      "name": "commentTweet",
      "outputs": [],
      "stateMutability": "nonpayable",
      "type": "function"
    },
    {
      "inputs": [
        {
          "internalType": "uint256",
          "name": "",
          "type": "uint256"
        }
      ],
      "name": "comments",
      "outputs": [
        {
          "internalType": "uint256",
          "name": "id",
          "type": "uint256"
        },
        {
          "internalType": "uint256",
          "name": "tweetId",
          "type": "uint256"
        },
        {
          "internalType": "address",
          "name": "author",
          "type": "address"
        },
        {
          "internalType": "string",
          "name": "text",
          "type": "string"
        },
        {
          "internalType": "uint256",
          "name": "timestamp",
          "type": "uint256"
        }
      ],
      "stateMutability": "view",
      "type": "function"
    },
    {
      "inputs": [
        {
          "internalType": "uint256",
          "name": "_commentId",
          "type": "uint256"
        }
      ],
      "name": "getComment",
      "outputs": [
        {
          "components": [
            {
              "internalType": "uint256",
              "name": "id",
              "type": "uint256"
            },
            {
              "internalType": "uint256",
              "name": "tweetId",
              "type": "uint256"
            },
            {
              "internalType": "address",
              "name": "author",
              "type": "address"
            },
            {
              "internalType": "string",
              "name": "text",
              "type": "string"
            },
            {
              "internalType": "uint256",
              "name": "timestamp",
              "type": "uint256"
            }
          ],
          "internalType": "struct AMDG.Comment",
          "name": "",
          "type": "tuple"
        }
      ],
      "stateMutability": "view",
      "type": "function"
    },
    {
      "inputs": [],
      "name": "getCommentsCount",
      "outputs": [
        {
          "internalType": "uint256",
          "name": "",
          "type": "uint256"
        }
      ],
      "stateMutability": "view",
      "type": "function"
    },
    {
      "inputs": [
        {
          "internalType": "uint256",
          "name": "_tweetId",
          "type": "uint256"
        }
      ],
      "name": "getTweet",
      "outputs": [
        {
          "components": [
            {
              "internalType": "uint256",
              "name": "id",
              "type": "uint256"
            },
            {
              "internalType": "address",
              "name": "author",
              "type": "address"
            },
            {
              "internalType": "string",
              "name": "text",
              "type": "string"
            },
            {
              "internalType": "string",
              "name": "imageUrl",
              "type": "string"
            },
            {
              "internalType": "uint256",
              "name": "timestamp",
              "type": "uint256"
            },
            {
              "internalType": "uint256",
              "name": "likeCount",
              "type": "uint256"
            }
          ],
          "internalType": "struct AMDG.Tweet",
          "name": "",
          "type": "tuple"
        }
      ],
      "stateMutability": "view",
      "type": "function"
    },
    {
      "inputs": [],
      "name": "getTweetsCount",
      "outputs": [
        {
          "internalType": "uint256",
          "name": "",
          "type": "uint256"
        }
      ],
      "stateMutability": "view",
      "type": "function"
    },
    {
      "inputs": [
        {
          "internalType": "uint256",
          "name": "_tweetId",
          "type": "uint256"
        }
      ],
      "name": "likeTweet",
      "outputs": [],
      "stateMutability": "nonpayable",
      "type": "function"
    },
    {
      "inputs": [
        {
          "internalType": "string",
          "name": "_text",
          "type": "string"
        },
        {
          "internalType": "string",
          "name": "_imageUrl",
          "type": "string"
        }
      ],
      "name": "postTweet",
      "outputs": [],
      "stateMutability": "nonpayable",
      "type": "function"
    },
    {
      "inputs": [
        {
          "internalType": "string",
          "name": "_username",
          "type": "string"
        }
      ],
      "name": "registerUser",
      "outputs": [],
      "stateMutability": "nonpayable",
      "type": "function"
    },
    {
      "inputs": [],
      "name": "tweetCount",
      "outputs": [
        {
          "internalType": "uint256",
          "name": "",
          "type": "uint256"
        }
      ],
      "stateMutability": "view",
      "type": "function"
    },
    {
      "inputs": [
        {
          "internalType": "uint256",
          "name": "",
          "type": "uint256"
        },
        {
          "internalType": "address",
          "name": "",
          "type": "address"
        }
      ],
      "name": "tweetLikes",
      "outputs": [
        {
          "internalType": "bool",
          "name": "",
          "type": "bool"
        }
      ],
      "stateMutability": "view",
      "type": "function"
    },
    {
      "inputs": [
        {
          "internalType": "uint256",
          "name": "",
          "type": "uint256"
        }
      ],
      "name": "tweets",
      "outputs": [
        {
          "internalType": "uint256",
          "name": "id",
          "type": "uint256"
        },
        {
          "internalType": "address",
          "name": "author",
          "type": "address"
        },
        {
          "internalType": "string",
          "name": "text",
          "type": "string"
        },
        {
          "internalType": "string",
          "name": "imageUrl",
          "type": "string"
        },
        {
          "internalType": "uint256",
          "name": "timestamp",
          "type": "uint256"
        },
        {
          "internalType": "uint256",
          "name": "likeCount",
          "type": "uint256"
        }
      ],
      "stateMutability": "view",
      "type": "function"
    },
    {
      "inputs": [
        {
          "internalType": "address",
          "name": "",
          "type": "address"
        }
      ],
      "name": "users",
      "outputs": [
        {
          "internalType": "string",
          "name": "username",
          "type": "string"
        },
        {
          "internalType": "bool",
          "name": "exists",
          "type": "bool"
        }
      ],
      "stateMutability": "view",
      "type": "function"
    }
  ],
  "bytecode": "0x6080604052348015600f57600080fd5b506120f58061001f6000396000f3fe608060405234801561001057600080fd5b50600436106100ea5760003560e01c80638ebb4c151161008c578063c1c1066b11610066578063c1c1066b14610262578063c3ad5ecb14610280578063c87e2944146102b0578063e8d857b0146102cc576100ea565b80638ebb4c15146101cd578063a87430ba14610201578063bb50197a14610232576100ea565b806345ff20de116100c857806345ff20de146101595780634a7782b3146101775780635ffc6ceb14610195578063704f1b94146101b1576100ea565b80630800e300146100ef57806319a26b891461011f5780633c64a17d1461013d575b600080fd5b61010960048036038101906101049190611344565b610301565b60405161011691906114c7565b60405180910390f35b6101276104a0565b60405161013491906114f8565b60405180910390f35b61015760048036038101906101529190611648565b6104aa565b005b6101616106ae565b60405161016e91906114f8565b60405180910390f35b61017f6106b4565b60405161018c91906114f8565b60405180910390f35b6101af60048036038101906101aa9190611344565b6106ba565b005b6101cb60048036038101906101c691906116c0565b610937565b005b6101e760048036038101906101e29190611344565b610aa6565b6040516101f8959493929190611762565b60405180910390f35b61021b600480360381019061021691906117e8565b610b94565b604051610229929190611830565b60405180910390f35b61024c60048036038101906102479190611860565b610c4d565b60405161025991906118a0565b60405180910390f35b61026a610c7c565b60405161027791906114f8565b60405180910390f35b61029a60048036038101906102959190611344565b610c86565b6040516102a7919061194b565b60405180910390f35b6102ca60048036038101906102c5919061196d565b610eb6565b005b6102e660048036038101906102e19190611344565b6110ed565b6040516102f8969594939291906119c9565b60405180910390f35b610309611269565b60008211801561031b57506005548211155b61035a576040517f08c379a000000000000000000000000000000000000000000000000000000000815260040161035190611a84565b60405180910390fd5b60026001836103699190611ad3565b8154811061037a57610379611b07565b5b90600052602060002090600502016040518060a001604052908160008201548152602001600182015481526020016002820160009054906101000a900473ffffffffffffffffffffffffffffffffffffffff1673ffffffffffffffffffffffffffffffffffffffff1673ffffffffffffffffffffffffffffffffffffffff16815260200160038201805461040d90611b65565b80601f016020809104026020016040519081016040528092919081815260200182805461043990611b65565b80156104865780601f1061045b57610100808354040283529160200191610486565b820191906000526020600020905b81548152906001019060200180831161046957829003601f168201915b505050505081526020016004820154815250509050919050565b6000600454905090565b6000803373ffffffffffffffffffffffffffffffffffffffff1673ffffffffffffffffffffffffffffffffffffffff16815260200190815260200160002060010160009054906101000a900460ff16610538576040517f08c379a000000000000000000000000000000000000000000000000000000000815260040161052f90611be2565b60405180910390fd5b6004600081548092919061054b90611c02565b919050555060016040518060c0016040528060045481526020013373ffffffffffffffffffffffffffffffffffffffff168152602001848152602001838152602001428152602001600081525090806001815401808255809150506001900390600052602060002090600602016000909190919091506000820151816000015560208201518160010160006101000a81548173ffffffffffffffffffffffffffffffffffffffff021916908373ffffffffffffffffffffffffffffffffffffffff16021790555060408201518160020190816106279190611df6565b50606082015181600301908161063d9190611df6565b506080820151816004015560a0820151816005015550503373ffffffffffffffffffffffffffffffffffffffff167f2f1db5e66c9090f15538b07b8a1b93d948b0d7ddb9e10aa0cdf618aa931d60726004548484426040516106a29493929190611ec8565b60405180910390a25050565b60055481565b60045481565b6000803373ffffffffffffffffffffffffffffffffffffffff1673ffffffffffffffffffffffffffffffffffffffff16815260200190815260200160002060010160009054906101000a900460ff16610748576040517f08c379a000000000000000000000000000000000000000000000000000000000815260040161073f90611be2565b60405180910390fd5b60008111801561075a57506004548111155b610799576040517f08c379a000000000000000000000000000000000000000000000000000000000815260040161079090611f67565b60405180910390fd5b6003600082815260200190815260200160002060003373ffffffffffffffffffffffffffffffffffffffff1673ffffffffffffffffffffffffffffffffffffffff16815260200190815260200160002060009054906101000a900460ff1615610837576040517f08c379a000000000000000000000000000000000000000000000000000000000815260040161082e90611fd3565b60405180910390fd5b60016003600083815260200190815260200160002060003373ffffffffffffffffffffffffffffffffffffffff1673ffffffffffffffffffffffffffffffffffffffff16815260200190815260200160002060006101000a81548160ff021916908315150217905550600180826108ae9190611ad3565b815481106108bf576108be611b07565b5b906000526020600020906006020160050160008154809291906108e190611c02565b91905055503373ffffffffffffffffffffffffffffffffffffffff167f33b8f513b5466d89f2a96589e6e48f7682fddc5debd283e6bb921ed3bba52b788260405161092c91906114f8565b60405180910390a250565b6000803373ffffffffffffffffffffffffffffffffffffffff1673ffffffffffffffffffffffffffffffffffffffff16815260200190815260200160002060010160009054906101000a900460ff16156109c6576040517f08c379a00000000000000000000000000000000000000000000000000000000081526004016109bd9061203f565b60405180910390fd5b6040518060400160405280828152602001600115158152506000803373ffffffffffffffffffffffffffffffffffffffff1673ffffffffffffffffffffffffffffffffffffffff1681526020019081526020016000206000820151816000019081610a319190611df6565b5060208201518160010160006101000a81548160ff0219169083151502179055509050503373ffffffffffffffffffffffffffffffffffffffff167f48cac28ad4dc618e15f4c2dd5e97751182f166de97b25618318b2112aa951a2f82604051610a9b919061205f565b60405180910390a250565b60028181548110610ab657600080fd5b90600052602060002090600502016000915090508060000154908060010154908060020160009054906101000a900473ffffffffffffffffffffffffffffffffffffffff1690806003018054610b0b90611b65565b80601f0160208091040260200160405190810160405280929190818152602001828054610b3790611b65565b8015610b845780601f10610b5957610100808354040283529160200191610b84565b820191906000526020600020905b815481529060010190602001808311610b6757829003601f168201915b5050505050908060040154905085565b6000602052806000526040600020600091509050806000018054610bb790611b65565b80601f0160208091040260200160405190810160405280929190818152602001828054610be390611b65565b8015610c305780601f10610c0557610100808354040283529160200191610c30565b820191906000526020600020905b815481529060010190602001808311610c1357829003601f168201915b5050505050908060010160009054906101000a900460ff16905082565b60036020528160005260406000206020528060005260406000206000915091509054906101000a900460ff1681565b6000600554905090565b610c8e6112ae565b600082118015610ca057506004548211155b610cdf576040517f08c379a0000000000000000000000000000000000000000000000000000000008152600401610cd690611f67565b60405180910390fd5b60018083610ced9190611ad3565b81548110610cfe57610cfd611b07565b5b90600052602060002090600602016040518060c0016040529081600082015481526020016001820160009054906101000a900473ffffffffffffffffffffffffffffffffffffffff1673ffffffffffffffffffffffffffffffffffffffff1673ffffffffffffffffffffffffffffffffffffffff168152602001600282018054610d8790611b65565b80601f0160208091040260200160405190810160405280929190818152602001828054610db390611b65565b8015610e005780601f10610dd557610100808354040283529160200191610e00565b820191906000526020600020905b815481529060010190602001808311610de357829003601f168201915b50505050508152602001600382018054610e1990611b65565b80601f0160208091040260200160405190810160405280929190818152602001828054610e4590611b65565b8015610e925780601f10610e6757610100808354040283529160200191610e92565b820191906000526020600020905b815481529060010190602001808311610e7557829003601f168201915b50505050508152602001600482015481526020016005820154815250509050919050565b6000803373ffffffffffffffffffffffffffffffffffffffff1673ffffffffffffffffffffffffffffffffffffffff16815260200190815260200160002060010160009054906101000a900460ff16610f44576040517f08c379a0000000000000000000000000000000000000000000000000000000008152600401610f3b90611be2565b60405180910390fd5b600082118015610f5657506004548211155b610f95576040517f08c379a0000000000000000000000000000000000000000000000000000000008152600401610f8c90611f67565b60405180910390fd5b60056000815480929190610fa890611c02565b919050555060026040518060a0016040528060055481526020018481526020013373ffffffffffffffffffffffffffffffffffffffff168152602001838152602001428152509080600181540180825580915050600190039060005260206000209060050201600090919091909150600082015181600001556020820151816001015560408201518160020160006101000a81548173ffffffffffffffffffffffffffffffffffffffff021916908373ffffffffffffffffffffffffffffffffffffffff16021790555060608201518160030190816110879190611df6565b506080820151816004015550503373ffffffffffffffffffffffffffffffffffffffff16827f28511bc6c6cfc5218ae0e05cbff64ff36914a1092f843abd6a0e81e110ff6aac60055484426040516110e193929190612081565b60405180910390a35050565b600181815481106110fd57600080fd5b90600052602060002090600602016000915090508060000154908060010160009054906101000a900473ffffffffffffffffffffffffffffffffffffffff169080600201805461114c90611b65565b80601f016020809104026020016040519081016040528092919081815260200182805461117890611b65565b80156111c55780601f1061119a576101008083540402835291602001916111c5565b820191906000526020600020905b8154815290600101906020018083116111a857829003601f168201915b5050505050908060030180546111da90611b65565b80601f016020809104026020016040519081016040528092919081815260200182805461120690611b65565b80156112535780601f1061122857610100808354040283529160200191611253565b820191906000526020600020905b81548152906001019060200180831161123657829003601f168201915b5050505050908060040154908060050154905086565b6040518060a001604052806000815260200160008152602001600073ffffffffffffffffffffffffffffffffffffffff16815260200160608152602001600081525090565b6040518060c0016040528060008152602001600073ffffffffffffffffffffffffffffffffffffffff168152602001606081526020016060815260200160008152602001600081525090565b6000604051905090565b600080fd5b600080fd5b6000819050919050565b6113218161130e565b811461132c57600080fd5b50565b60008135905061133e81611318565b92915050565b60006020828403121561135a57611359611304565b5b60006113688482850161132f565b91505092915050565b61137a8161130e565b82525050565b600073ffffffffffffffffffffffffffffffffffffffff82169050919050565b60006113ab82611380565b9050919050565b6113bb816113a0565b82525050565b600081519050919050565b600082825260208201905092915050565b60005b838110156113fb5780820151818401526020810190506113e0565b60008484015250505050565b6000601f19601f8301169050919050565b6000611423826113c1565b61142d81856113cc565b935061143d8185602086016113dd565b61144681611407565b840191505092915050565b600060a0830160008301516114696000860182611371565b50602083015161147c6020860182611371565b50604083015161148f60408601826113b2565b50606083015184820360608601526114a78282611418565b91505060808301516114bc6080860182611371565b508091505092915050565b600060208201905081810360008301526114e18184611451565b905092915050565b6114f28161130e565b82525050565b600060208201905061150d60008301846114e9565b92915050565b600080fd5b600080fd5b7f4e487b7100000000000000000000000000000000000000000000000000000000600052604160045260246000fd5b61155582611407565b810181811067ffffffffffffffff821117156115745761157361151d565b5b80604052505050565b60006115876112fa565b9050611593828261154c565b919050565b600067ffffffffffffffff8211156115b3576115b261151d565b5b6115bc82611407565b9050602081019050919050565b82818337600083830152505050565b60006115eb6115e684611598565b61157d565b90508281526020810184848401111561160757611606611518565b5b6116128482856115c9565b509392505050565b600082601f83011261162f5761162e611513565b5b813561163f8482602086016115d8565b91505092915050565b6000806040838503121561165f5761165e611304565b5b600083013567ffffffffffffffff81111561167d5761167c611309565b5b6116898582860161161a565b925050602083013567ffffffffffffffff8111156116aa576116a9611309565b5b6116b68582860161161a565b9150509250929050565b6000602082840312156116d6576116d5611304565b5b600082013567ffffffffffffffff8111156116f4576116f3611309565b5b6117008482850161161a565b91505092915050565b611712816113a0565b82525050565b600082825260208201905092915050565b6000611734826113c1565b61173e8185611718565b935061174e8185602086016113dd565b61175781611407565b840191505092915050565b600060a08201905061177760008301886114e9565b61178460208301876114e9565b6117916040830186611709565b81810360608301526117a38185611729565b90506117b260808301846114e9565b9695505050505050565b6117c5816113a0565b81146117d057600080fd5b50565b6000813590506117e2816117bc565b92915050565b6000602082840312156117fe576117fd611304565b5b600061180c848285016117d3565b91505092915050565b60008115159050919050565b61182a81611815565b82525050565b6000604082019050818103600083015261184a8185611729565b90506118596020830184611821565b9392505050565b6000806040838503121561187757611876611304565b5b60006118858582860161132f565b9250506020611896858286016117d3565b9150509250929050565b60006020820190506118b56000830184611821565b92915050565b600060c0830160008301516118d36000860182611371565b5060208301516118e660208601826113b2565b50604083015184820360408601526118fe8282611418565b915050606083015184820360608601526119188282611418565b915050608083015161192d6080860182611371565b5060a083015161194060a0860182611371565b508091505092915050565b6000602082019050818103600083015261196581846118bb565b905092915050565b6000806040838503121561198457611983611304565b5b60006119928582860161132f565b925050602083013567ffffffffffffffff8111156119b3576119b2611309565b5b6119bf8582860161161a565b9150509250929050565b600060c0820190506119de60008301896114e9565b6119eb6020830188611709565b81810360408301526119fd8187611729565b90508181036060830152611a118186611729565b9050611a2060808301856114e9565b611a2d60a08301846114e9565b979650505050505050565b7f436f6d6d656e7420646f6573206e6f742065786973742e000000000000000000600082015250565b6000611a6e601783611718565b9150611a7982611a38565b602082019050919050565b60006020820190508181036000830152611a9d81611a61565b9050919050565b7f4e487b7100000000000000000000000000000000000000000000000000000000600052601160045260246000fd5b6000611ade8261130e565b9150611ae98361130e565b9250828203905081811115611b0157611b00611aa4565b5b92915050565b7f4e487b7100000000000000000000000000000000000000000000000000000000600052603260045260246000fd5b7f4e487b7100000000000000000000000000000000000000000000000000000000600052602260045260246000fd5b60006002820490506001821680611b7d57607f821691505b602082108103611b9057611b8f611b36565b5b50919050565b7f55736572206e6f7420726567697374657265642e000000000000000000000000600082015250565b6000611bcc601483611718565b9150611bd782611b96565b602082019050919050565b60006020820190508181036000830152611bfb81611bbf565b9050919050565b6000611c0d8261130e565b91507fffffffffffffffffffffffffffffffffffffffffffffffffffffffffffffffff8203611c3f57611c3e611aa4565b5b600182019050919050565b60008190508160005260206000209050919050565b60006020601f8301049050919050565b600082821b905092915050565b600060088302611cac7fffffffffffffffffffffffffffffffffffffffffffffffffffffffffffffffff82611c6f565b611cb68683611c6f565b95508019841693508086168417925050509392505050565b6000819050919050565b6000611cf3611cee611ce98461130e565b611cce565b61130e565b9050919050565b6000819050919050565b611d0d83611cd8565b611d21611d1982611cfa565b848454611c7c565b825550505050565b600090565b611d36611d29565b611d41818484611d04565b505050565b5b81811015611d6557611d5a600082611d2e565b600181019050611d47565b5050565b601f821115611daa57611d7b81611c4a565b611d8484611c5f565b81016020851015611d93578190505b611da7611d9f85611c5f565b830182611d46565b50505b505050565b600082821c905092915050565b6000611dcd60001984600802611daf565b1980831691505092915050565b6000611de68383611dbc565b9150826002028217905092915050565b611dff826113c1565b67ffffffffffffffff811115611e1857611e1761151d565b5b611e228254611b65565b611e2d828285611d69565b600060209050601f831160018114611e605760008415611e4e578287015190505b611e588582611dda565b865550611ec0565b601f198416611e6e86611c4a565b60005b82811015611e9657848901518255600182019150602085019450602081019050611e71565b86831015611eb35784890151611eaf601f891682611dbc565b8355505b6001600288020188555050505b505050505050565b6000608082019050611edd60008301876114e9565b8181036020830152611eef8186611729565b90508181036040830152611f038185611729565b9050611f1260608301846114e9565b95945050505050565b7f547765657420646f6573206e6f742065786973742e0000000000000000000000600082015250565b6000611f51601583611718565b9150611f5c82611f1b565b602082019050919050565b60006020820190508181036000830152611f8081611f44565b9050919050565b7f547765657420616c7265616479206c696b65642e000000000000000000000000600082015250565b6000611fbd601483611718565b9150611fc882611f87565b602082019050919050565b60006020820190508181036000830152611fec81611fb0565b9050919050565b7f5573657220616c726561647920726567697374657265642e0000000000000000600082015250565b6000612029601883611718565b915061203482611ff3565b602082019050919050565b600060208201905081810360008301526120588161201c565b9050919050565b600060208201905081810360008301526120798184611729565b905092915050565b600060608201905061209660008301866114e9565b81810360208301526120a88185611729565b90506120b760408301846114e9565b94935050505056fea26469706673582212202fb1354f5279a38942013fabe8572ad05ebb659200d5426a5118fb18e67255ff64736f6c634300081c0033",
  "linkReferences": {},
  "deployedLinkReferences": {}
}